S00F00006B6B64726F6E652E7372656327
S11300000C9434000C9484000C94B5000C94E60019
S11300100C9451000C9453000C9451000C94510016
S11300200C9451000C9451000C9451000C94510008
S11300300C9451000C9451000C9451000C945100F8
S11300400C9451000C9451000C9451000C945100E8
S11300500C9451000C9451000C9451000C945100D8
S11300600C9451000C94510011241FBECFEFD4E026
S1130070DEBFCDBF11E0A0E0B1E0EAE3F1E102C0F0
S113008005900D92A230B107D9F711E0A2E0B1E0DA
S113009001C01D92A935B107E1F70E9449080C94EB
S11300A09B080C9400001F920F920FB60F9211241C
S11300B02F933F938F939F9389B181FF09C08091C0
S11300C084009091850090933F0180933E0113C07A
S11300D081E080934A018091840090918500209171
S11300E03E0130913F01821B930B90934C0180930E
S11300F04B0110924A019F918F913F912F910F9044
S11301000FBE0F901F9018951F920F920FB60F926B
S113011011242F933F938F939F9389B182FF09C03A
S11301208091840090918500909324018093230111
S113013013C081E080934A018091840090918500EE
S11301402091230130912401821B930B9093380159
S11301508093370110924A019F918F913F912F9183
S11301600F900FBE0F901F9018951F920F920FB60D
S11301700F9211242F933F938F939F9389B183FF01
S113018009C0809184009091850090932E01809302
S11301902D0113C081E080934A01809184009091E5
S11301A0850020912D0130912E01821B930B909399
S11301B049018093480110924A019F918F913F9188
S11301C02F910F900FBE0F901F9018951F920F92B2
S11301D00FB60F9211242F933F938F939F931F9BDE
S11301E009C0809184009091850090934701809389
S11301F0460113C081E080934A018091840090916C
S113020085002091460130914701821B930B909306
S113021026018093250110924A019F918F913F916D
S11302202F910F900FBE0F901F9018958FE380931E
S11302307E0010927B00089580937C0086EC80936E
S11302407A00EAE7F0E0808186FDFDCF0895EF9221
S1130250FF920F931F93CF93DF9383E00E941C01BF
S113026008E710E0F801208130E030934101209349
S113027040010F2EF9E7EF2EFF24F02DF701408106
S1130280942F80E0820F931F90934101809340014B
S1130290CAE0D0E0BE010E944E0870933201609320
S11302A0310184E00E941C01F801208130E0309388
S11302B0430120934201F7014081942F80E0820F93
S11302C0931F9093430180934201BE010E944E0804
S11302D0709334016093330185E00E941C01F8019E
S11302E0808190E09093450180934401F70140811F
S11302F0342F20E0820F931F909345018093440193
S1130300BE010E944E087093360160933501DF915F
S1130310CF911F910F91FF90EF9008950F931F932A
S1130320CF93DF93C82F82E00E941C0120917800B4
S113033030E030931B0120931A0140917900942FEF
S113034080E0820F931F90931B0180931A01CC23AA
S113035009F041C02091030130910401821B930BE9
S113036090931B0180931A0181E00E941C01C8E74D
S1130370D0E0288130E030931D0120931C0109E76F
S113038010E0F8014081942F80E0820F931F409188
S1130390050150910601841B950B90931D018093D8
S11303A01C0180E00E941C01288130E030931F0171
S11303B020931E01F8014081942F80E0820F931F47
S11303C04091070150910801841B950B90931F01E4
S11303D080931E012AC081E00E941C01C8E7D0E07E
S11303E0288130E030931D0120931C0109E710E0BF
S11303F0F8014081942F80E0820F931F90931D0198
S113040080931C0180E00E941C01288130E030931D
S11304101F0120931E01F8014081942F80E0820F78
S1130420931F90931F0180931E01DF91CF911F9121
S11304300F9108956F927F928F929F92AF92BF9285
S1130440CF92DF92EF92FF920F931F93CF930E946C
S113045027011092040110920301109206011092D8
S113046005011092080110920701C0E203E011E0B7
S11304700F2EFAE1AF2EF1E0BF2EF02DEE24FF2473
S11304806894E1F8E00EF11E88249924689481F8B8
S11304908A0C9B1CCC24DD246894C2F8C00ED11EA7
S11304A066247724689462F86A0C7B1C81E00E94BD
S11304B08E01F80180819181F50120813181820FC3
S11304C0931FF80191838083F70180819181F40166
S11304D020813181820F931FF70191838083F6017C
S11304E080819181F30120813181820F931FF60174
S11304F091838083C150D1F68091030190910401CE
S113050095958795959587959595879595958795CF
S1130510959587959093040180930301809105013B
S113052090910601959587959595879595958795CD
S113053095958795959587959093060180930501E8
S113054080910701909108019595879595958795D8
S11305509595879595958795959587959093080199
S11305608093070181E080932201CF911F910F9125
S1130570FF90EF90DF90CF90BF90AF909F908F90BF
S11305807F906F90089580914A018823E1F78091CC
S11305904B0190914C012091510130915201821BE9
S11305A0930B9595879595958795909328018093BE
S11305B0270180914A018823E1F7809137019091C6
S11305C038012091530130915401821B930B95956E
S11305D087959595879590933C0180933B018091F5
S11305E04A018823E1F780914801909149012091C3
S11305F0550130915601821B930B959587959595DE
S1130600879595958795909319018093180180910A
S11306104A018823E1F780912501909126012091D8
S1130620570130915801821B930B90930D018093D5
S11306300C01959587959595879590932A018093BC
S11306402901089580910201882309F40FC1809142
S113065020019091210199232CF4109221011092F0
S1130660200109C08536910534F084E690E090932A
S113067021018093200180912B0190912C019923D9
S11306802CF410922C0110922B0109C0853691058F
S113069034F084E690E090932C0180932B018091B8
S11306A0390190913A0199232CF410923A01109255
S11306B0390109C08536910534F084E690E09093C1
S11306C03A018093390180912F019091300199234F
S11306D02CF41092300110922F0109C08536910537
S11306E034F084E690E09093300180932F01809160
S11306F084009091850020910E0130910F01821B9E
S1130700930B9093110180931001A89816BC6AE092
S113071070E00E944E086F5F60931201262F33270A
S113072027FD309584E690E0821B930B909314018F
S1130730809313012091200130912101280F391F4A
S1130740309321012093200120912B0130912C0121
S1130750280F391F30932C0120932B01209139014C
S113076030913A01280F391F30933A01209339010F
S113077020912F0130913001820F931F909330010B
S113078080932F01A89816BC60931501683C08F06B
S113079046C086B58035E8F386B5805586BD809120
S11307A0200190912101009741F00197909321013C
S11307B080932001009709F42A9880912B0190914D
S11307C02C01009741F0019790932C0180932B0109
S11307D0009709F429988091390190913A01009782
S11307E041F0019790933A0180933901009709F4FD
S11307F0289880912F0190913001009741F0019742
S11308009093300180932F01009709F45F988091B1
S113081015018F5F80931501883C08F4BACF80914D
S113082000019091010101979093170180931601A3
S1130830A89816BC9C012150304030931701209396
S11308401601009799F086B58035E8F386B5805592
S113085086BD80911601909117019C012150304072
S11308603093170120931601009769F780913D0199
S1130870882379F0809184009091850090930F01F2
S113088080930E0181E0809302012A9A299A289A82
S11308905F9A0895CF92DF92EF92FF920F931F9386
S11308A0CF93DF930E94C3028091180190911901A4
S11308B099230CF04DC0E2EBF0E020818091090116
S11308C0281B80910A0190910B01820F911D909336
S11308D00B0180930A0180818093090120913D01DD
S11308E0222361F08091290190912A018C33910592
S11308F094F410920B0110920A012AC080912901EC
S113090090912A013FEF853C93072CF010920B0144
S113091010920A011DC080910A0190910B01ACE470
S11309208C349A07A8F081E0282720933D012E9863
S1130930222331F0109202010E941A022E9A2FC132
S113094080910201882309F42AC10E94220327C14D
S113095080E00E948E0180911801909119018036E7
S1130960910534F08FE590E090931901809318017C
S1130970E0911801F09119018091310190913201B7
S11309809C01220F331F280F391F40911A015091E7
S11309901B01249FC001259F900D349F900D1124AD
S11309A064E670E00E94620870931B0160931A0170
S11309B080912701909128019595879520914E016A
S11309C0222339F4680F791F70932801609327015B
S11309D006C0861B970B9093280180932701809172
S11309E02701909128017F01E80EF91E6F01C81AB2
S11309F0D90A80913301909134019C01220F331F55
S1130A00280F391F40911C0150911D01249FC001E2
S1130A10259F900D349F900D112464E670E00E9490
S1130A20620870931D0160931C0180913B019091B9
S1130A303C019595879520914F01222339F4860F27
S1130A40971F90933C0180933B0106C0861B970B34
S1130A5090933C0180933B0180913B0190913C0138
S1130A60EF01C80FD91F8F01081B190B80913501A5
S1130A70909136019C01220F331F280F391F40919A
S1130A801E0150911F01249FC001259F900D349F8A
S1130A90900D112464E670E00E94620870931F01B7
S1130AA060931E018091290190912A019595879563
S1130AB020915001222339F4860F971F90932A0125
S1130AC08093290106C0861B970B90932A0180937B
S1130AD029018091290190912A019E01281B390B3B
S1130AE03093210120932001A701480F591F5093EF
S1130AF02C0140932B01B601680F791F70933A01C2
S1130B0060933901D801A81BB90BCD01B093300112
S1130B10A0932F012A30310534F42AE030E03093D9
S1130B202101209320014A30510534F42AE030E0B9
S1130B3030932C0120932B016A30710534F42AE0A0
S1130B4030E030933A01209339018A30910534F42E
S1130B508AE090E09093300180932F011E161F06C7
S1130B6044F480913D01882321F08091220188235F
S1130B70A1F4109221011092200110922C011092E4
S1130B802B0110923A011092390110923001109207
S1130B902F0180913D01882311F00E942203DF91EF
S1130BA0CF911F910F91FF90EF90DF90CF90089518
S1130BB01F93CF93DF93EC01162F0E9485088117B2
S1130BC021F0CE01612F0E948D08DF91CF911F91FA
S1130BD00895EF92FF920F931F93CF93DF93EC014D
S1130BE07B014115510569F08C01040F151FC701E4
S1130BF069910E94D8050894E11CF11CC017D10723
S1130C00B1F7DF91CF911F910F91FF90EF9008956D
S1130C1081E080934E0180934F011092500180EF48
S1130C2095E09093520180935101909354018093E5
S1130C30530120E634E030935601209355019093FC
S1130C405801809357010895F8948DE491E06AE087
S1130C5070E04CE050E00E94E905789408958AE041
S1130C6090E00E948508873441F087E480934D0129
S1130C700E9408060E94240608958DE491E06AE02B
S1130C8070E04CE050E00E9475080895CF92DF9226
S1130C90EF92FF920F931F93CF93DF9385B78061F9
S1130CA085BF5198529853982798389839983A980C
S1130CB03D983C983B98229A219A209A579A269AD2
S1130CC02E9849984A984B981F98E8E6F0E080815E
S1130CD081608083808184608083EBE6F0E08081A2
S1130CE080688083EDE6F0E080818260808385E027
S1130CF08093690083E08DBB8CB383608CBB14BC90
S1130D0081E085BD10926E001092800082E0809395
S1130D1081001092B00087E08093B10010927000BF
S1130D2017BA1092B2000E942F060E941601109268
S1130D30220110923D0110924A018091510190913B
S1130D40520190934C0180934B01809153019091F7
S1130D50540190933801809337018091550190910B
S1130D6056019093490180934801809157019091D5
S1130D70580190932601809325012E9A8BE792E9DE
S1130D800197F1F700C000002E9878948FED93E955
S1130D90A4E081509040A040E1F700C000000E9410
S1130DA027010E94270180914201909143018333DE
S1130DB0910508F07FC080914001909141018333F7
S1130DC0910550F48091440190914501833391053C
S1130DD018F40E940806FFCF10925201109251019C
S1130DE0109254011092530110925801109257011D
S1130DF02E9AA9E6B8E11197F1F700C000002E98E9
S1130E00E9E6F8E13197F1F700C000002E9A89E68F
S1130E1098E10197F1F700C000002E98A9E6B8E127
S1130E201197F1F700C000002E9AE9E6F8E1319736
S1130E30F1F700C000002E9889E698E10197F1F7D8
S1130E4000C00000C4E0D0E0CC24DD24EE24FF2464
S1130E5000E010E00E94C3028091270190912801D4
S1130E60080F191F80913B0190913C01E80EF91E77
S1130E708091290190912A01C80ED91EA7EAB1E6F2
S1130E801197F1F700C00000219721F71093520148
S1130E9000935101F0925401E092530180E694E0F2
S1130EA09093560180935501D0925801C0925701F6
S1130EB00E94240680914001909141018333910561
S1130EC008F08AC02E9AE9E6F8E13197F1F700C0FC
S1130ED000002E9889E698E10197F1F700C0000020
S1130EE02E9AA9E6B8E11197F1F700C000002E98F8
S1130EF0E9E6F8E13197F1F700C000002E9A89E69F
S1130F0098E10197F1F700C000002E98A9E6B8E136
S1130F101197F1F700C000000EE411E00F2EF0E588
S1130F20CF2EF1E0DF2EF02DC1E00F2EFFE4EF2EE7
S1130F30F1E0FF2EF02D0E94C302809127019091D1
S1130F402801BFEF823E9B072CF4F80110820E9417
S1130F5024062E9A80912701909128018F319105C2
S1130F6034F0D801CC930E9424062E9A2DC080918F
S1130F703B0190913C01BFEF823E9B0734F4F701A3
S1130F8010820E9424062E9A1FC08F31910534F0DE
S1130F90D701CC930E9424062E9A16C08091290171
S1130FA090912A01BFEF823E9B0734F4F601108230
S1130FB00E9424062E9A08C08F3191052CF0D60188
S1130FC0CC930E9424062E9AE3EDF0E33197F1F7D7
S1130FD000C000002E98AFCF80914401909145014C
S1130FE08333910508F04CC02E9A89E698E1019765
S1130FF0F1F700C000002E98A9E6B8E11197F1F7C7
S113100000C000002E9AE9E6F8E13197F1F700C03C
S113101000002E9889E698E10197F1F700C00000DE
S11310202E9AA9E6B8E11197F1F700C000002E98B6
S1131030E9E6F8E13197F1F700C0000081E0809320
S11310403D0188E097E090930101809300010E94A4
S1131050C30280911801909119019093210180930A
S1131060200190932C0180932B0190933A0180935B
S113107039019093300180932F010E942203E7CF1E
S1131080DF91CF911F910F91FF90EF90DF90CF9060
S113109008950E9446060E944A04FDCFAA1BBB1B6A
S11310A051E107C0AA1FBB1FA617B70710F0A61B64
S11310B0B70B881F991F5A95A9F780959095BC0185
S11310C0CD01089597FB092E07260AD077FD04D099
S11310D0E5DF06D000201AF4709561957F4F0895DE
S11310E0F6F7909581959F4F0895DC01CB01FC01A3
S11310F0F999FECF06C0F2BDE1BDF89A319600B46D
S11311000D9241505040B8F70895F999FECF92BD21
S113111081BDF89A992780B50895262FF999FECFB5
S11311201FBA92BD81BD20BD0FB6F894FA9AF99A00
S10D11300FBE01960895F894FFCF56
S105113A160099
S9030000FC
