:100000000C9434000C94E5010C9416020C944702F5
:100010000C9451000C94B4010C9451000C945100B8
:100020000C9451000C9451000C9451000C9451000C
:100030000C9451000C9451000C9451000C945100FC
:100040000C9451000C9451000C9451000C945100EC
:100050000C9451000C9451000C9451000C945100DC
:100060000C9451000C94510011241FBECFEFD4E02A
:10007000DEBFCDBF11E0A0E0B1E0E8E2F1E102C0F7
:1000800005900D92A230B107D9F711E0A2E0B1E0DE
:1000900001C01D92A338B107E1F70E9440080C94FB
:1000A00092080C9400008FE380937E0010927B00F6
:1000B000089580937C0086EC80937A0080917A008A
:1000C00086FDFCCF0895CF92DF92EF92FF920F93BF
:1000D0001F93CF93DF9383E00E945900C8E7D0E0DD
:1000E000888190E090936B0180936A0129E7E22E6A
:1000F000F12CF7014081C12C34E0D32E9601281B4E
:10010000390B942F80E0281B390B30936B0120931F
:100110006A010AE010E0C901B8010E944508709325
:1001200058016093570184E00E945900888190E053
:1001300090936D0180936C01F70140819601281B1B
:10014000390BC901342F20E0821B930B90936D0172
:1001500080936C01B8010E94450870935A01609326
:10016000590185E00E945900888190E090936F01C9
:1001700080936E01F70140819601281B390BC9015C
:10018000342F20E0821B930B90936F0180936E01BC
:10019000B8010E94450870935C0160935B01DF9198
:1001A000CF911F910F91FF90EF90DF90CF90089526
:1001B000CF93C82F82E00E9459002091780030E050
:1001C000309337012093360140917900942F80E0DD
:1001D000820F931F9093370180933601CC2351F403
:1001E0002091030130910401821B930B90933701FE
:1001F0008093360181E00E9459002091780030E020
:10020000309339012093380140917900942F80E098
:10021000820F931F9093390180933801CC2351F4BE
:100220002091050130910601821B930B90933901B7
:100230008093380180E00E9459002091780030E0DE
:1002400030933B0120933A0140917900942F80E054
:10025000820F931F90933B0180933A01CC2351F47A
:100260002091070130910801821B930B90933B0171
:1002700080933A01CF9108950F931F93CF93DF930B
:100280000F92CDB7DEB78C0169830E947C0869812B
:10029000861719F0C8010E9484080F90DF91CF9152
:1002A0001F910F910895CF92DF92EF92FF920F93DB
:1002B0001F93CF93DF937C018B016A01C0E0D0E0F4
:1002C00009C0C801F70161917F010E943C010F5FE5
:1002D0001F4F2196CC15DD05A1F7DF91CF911F911E
:1002E0000F91FF90EF90DF90CF90089581E0809381
:1002F00078011092790110927A0180EF95E0909345
:100300007C0180937B0190937E0180937D0120E6A8
:1003100034E03093800120937F0190938201809399
:1003200081010895F89487E791E06AE070E04CE07D
:1003300050E00E945301789408958AE090E00E9472
:100340007C08873441F087E4809377010E9476012E
:100350000E949201089587E791E06AE070E04CE026
:1003600050E00E946C0808951F920F920FB60F92F2
:1003700011242F933F938F939F9389B181FF09C0DD
:100380008091840090918500909369018093680129
:1003900013C081E080937401809184009091850066
:1003A0002091680130916901821B930B9093760133
:1003B00080937501109274019F918F913F912F91BD
:1003C0000F900FBE0F901F9018951F920F920FB6AF
:1003D0000F9211242F933F938F939F9389B182FFA4
:1003E00009C0809184009091850090934001809392
:1003F0003F0113C081E0809374018091840090914B
:10040000850020913F0130914001821B930B909316
:100410005E0180935D01109274019F918F913F91D5
:100420002F910F900FBE0F901F9018951F920F9253
:100430000FB60F9211242F933F938F939F9389B1FF
:1004400083FF09C0809184009091850090935401AE
:100450008093530113C081E08093740180918400E4
:10046000909185002091530130915401821B930B90
:100470009093730180937201109274019F918F91F8
:100480003F912F910F900FBE0F901F9018951F92C4
:100490000F920FB60F9211242F933F938F939F9338
:1004A0001F9B09C0809184009091850090937101F9
:1004B0008093700113C081E0809374018091840067
:1004C000909185002091700130917101821B930BF6
:1004D0009093420180934101109274019F918F91FA
:1004E0003F912F910F900FBE0F901F901895CF93B3
:1004F0000E94630010920401109203011092060101
:10050000109205011092080110920701C0E281E0EB
:100510000E94D8008091030190910401209136013E
:1005200030913701820F931F909304018093030150
:100530004091050150910601209138013091390117
:10054000420F531F5093060140930501609107012C
:100550007091080120913A0130913B01620F731FA5
:100560007093080160930701C15089F625E09595C5
:1005700087952A95E1F7909304018093030135E074
:10058000559547953A95E1F750930601409305013B
:10059000E5E075956795EA95E1F77093080160933A
:1005A000070181E080933E01CF910895809174010D
:1005B0008823E1F7809175019091760120917B016C
:1005C00030917C01821B930B959587959595879526
:1005D00090934A0180934901809174018823E1F747
:1005E00080915D0190915E0120917D0130917E01AD
:1005F000821B930B959587959595879590934C01C4
:1006000080934B01809174018823E1F780917201FE
:100610009091730120917F0130918001821B930B97
:10062000A3E095958795AA95E1F790935001809363
:100630004F01809174018823E1F7809141019091ED
:1006400042012091810130918201821B930B909392
:100650000D0180930C0195958795959587959093BD
:100660004E0180934D01089580910201882309F481
:1006700007C180913C0190913D0197FF05C0109208
:100680003D0110923C0109C08536910534F084E6A5
:1006900090E090933D0180933C01809151019091B5
:1006A000520197FF05C0109252011092510109C0EA
:1006B0008536910534F084E690E090935201809362
:1006C0005101809165019091660197FF05C01092DC
:1006D00066011092650109C08536910534F084E603
:1006E00090E090936601809365018091550190910F
:1006F000560197FF05C0109256011092550109C08E
:100700008536910534F084E690E09093560180930D
:100710005501809184009091850020910E013091C7
:100720000F01821B930B9093110180931001A898E5
:1007300016BC6AE070E00E9445086F5F609312018A
:10074000262F332727FD309584E690E0821B930BFC
:10075000909314018093130120913C0130913D014D
:10076000280F391F30933D0120933C012091510106
:1007700030915201280F391F3093520120935101BB
:100780002091650130916601280F391F3093660171
:10079000209365012091550130915601280F391F92
:1007A0003093560120935501A89816BC609315010B
:1007B00043C086B58035E8F386B5805586BD809107
:1007C0003C0190913D01009741F0019790933D01CC
:1007D00080933C01009709F42A98809151019091EF
:1007E0005201009741F0019790935201809351017B
:1007F000009709F42998809165019091660100970E
:1008000041F001979093660180936501009709F488
:1008100028988091550190915601009741F00197D9
:100820009093560180935501009709F45F98809149
:1008300015018F5F8093150180911501883C08F4A4
:10084000B8CF809100019091010101979093170119
:1008500080931601A89816BC06C086B58035E8F3CB
:1008600086B5805586BD80911601909117019C0137
:10087000215030403093170120931601009769F7FB
:1008800080916701882379F08091840090918500A0
:1008900090930F0180930E0181E0809302012A9AC8
:1008A000299A289A5F9A08950E94D60280914F0152
:1008B00090915001853091050CF04CC02091B20010
:1008C00080910B01281B8091090190910A01820FF0
:1008D000911D90930A01809309018091B200809349
:1008E0000B0180916701882341F480914D01909123
:1008F0004E018C3391056CF408C080914D019091AC
:100900004E012FEF853C920724F010920A011092BD
:1009100009018091090190910A012EE18538920721
:10092000C8F08091670191E08927809367012E9834
:10093000882341F0109202010E9477020E948A07E8
:100940002E9A089580910201882309F4FBC00E9429
:100950003403089580E00E94D80080914F01909167
:1009600050018036910534F08FE590E0909350016E
:1009700080934F0180914F019091500190933D01E0
:1009800080933C01909352018093510190936601B2
:1009900080936501909356018093550180E06091AA
:1009A00078010E94C4079595879520913C0130916C
:1009B0003D01280F391F30933D0120933C012091C8
:1009C000510130915201280F391F30935201209369
:1009D00051012091650130916601281B390B30933C
:1009E0006601209365012091550130915601281B25
:1009F000390B309356012093550181E060917901C4
:100A00000E94C4079595879520913C0130913D0146
:100A1000280F391F30933D0120933C012091510153
:100A200030915201281B390B309352012093510110
:100A30002091650130916601280F391F30936601BE
:100A4000209365012091550130915601281B390BE7
:100A5000309356012093550182E060917A010E9403
:100A6000C40720913C0130913D01280F391F30937C
:100A70003D0120933C014091510150915201481B8E
:100A8000590B50935201409351016091650170914F
:100A90006601681B790B7093660160936501E091B4
:100AA0005501F0915601E80FF91FF0935601E093BC
:100AB00055012A30310534F48AE090E090933D01ED
:100AC00080933C014A30510534F48AE090E09093E1
:100AD0005201809351016A30710534F48AE090E04C
:100AE0009093660180936501EA30F10534F48AE061
:100AF00090E0909356018093550180914F01909121
:100B000050018630910544F080916701882321F0DF
:100B100080913E01882381F410923D0110923C01A6
:100B200010925201109251011092660110926501CB
:100B3000109256011092550180916701882311F09F
:100B40000E9434030895CF92DF92EF92FF920F93A9
:100B50001F93CF93DF9385B7806185BF51985298DB
:100B600053982798389839983A983D983C983B98EC
:100B7000229A219A209A579A269A2E9849984A980A
:100B80004B981F98809168008160809368008091E5
:100B9000680084608093680080916B008068809317
:100BA0006B0080916D00826080936D0085E0809382
:100BB000690083E08DBB8CB383608CBB14BC81E087
:100BC00085BD10926E001092800082E080938100BB
:100BD0001092B00087E08093B1001092700017BAB5
:100BE0001092B2000E949D010E94530010923E019B
:100BF000109267011092740180917B0190917C01A9
:100C0000909376018093750180917D0190917E0192
:100C100090935E0180935D0180917F0190918001AE
:100C20009093730180937201809181019091820170
:100C300090934201809341012E9A8BE792E90197AC
:100C4000F1F700C000002E9878942FED33E944E0CE
:100C5000215030404040E1F700C000000E94630096
:100C60000E94630080916C0190916D018333910526
:100C700008F078C080916A0190916B0183339105EF
:100C800050F480916E0190916F018333910518F4B7
:100C90000E947601FFCF10927C0110927B0110928E
:100CA0007E0110927D01109282011092810184E0F8
:100CB00090E02E9A2FE33DE043E021503040404049
:100CC000E1F700C000002E982FE33DE043E0215003
:100CD00030404040E1F700C00000019751F7C4E008
:100CE000D0E0CC24DD24EE24FF2400E010E00E94BC
:100CF000D6028091490190914A01080F191F8091F5
:100D00004B0190914C01E80EF91E80914D0190919C
:100D10004E01C80ED91E87EA91E60197F1F700C08F
:100D20000000219721F710937C0100937B01F09242
:100D30007E01E0927D0180E694E0909380018093B3
:100D40007F01D0928201C09281010E9492012E9A6D
:100D50002FE73AE146E0215030404040E1F700C043
:100D600000002E9880916A0190916B018333910568
:100D700008F061C085E090E02E9A2FE33DE043E06B
:100D8000215030404040E1F700C000002E982FE392
:100D90003DE043E0215030404040E1F700C000001A
:100DA000019751F7C1E00E94D602809149019091CC
:100DB0004A013FEF823E93072CF4109278010E9483
:100DC00092012E9A8091490190914A018F319105AB
:100DD0001CF0C093780121C080914B0190914C018F
:100DE0004FEF823E94071CF41092790116C08F31A8
:100DF00091051CF0C093790110C080914D01909134
:100E00004E015FEF823E95071CF410927A0105C0F7
:100E10008F3191052CF0C0937A010E9492012E9A95
:100E20008FE39DE0A3E081509040A040E1F700C037
:100E300000002E98B8CF80916E0190916F0183339E
:100E4000910508F05EC02E9A2FE33DE043E021506B
:100E500030404040E1F700C000002E988FE39DE055
:100E6000A3E081509040A040E1F700C000002E9A1E
:100E70002FE33DE043E0215030404040E1F700C027
:100E800000002E988FE39DE0A3E081509040A040A9
:100E9000E1F700C000002E9A2FE33DE043E021502F
:100EA00030404040E1F700C000002E988FE39DE005
:100EB000A3E081509040A040E1F700C0000081E035
:100EC0008093670188E097E090930101809300018F
:100ED0000E94D60280914F019091500190933D0164
:100EE00080933C019093520180935101909366014D
:100EF0008093650190935601809355010E943403BD
:100F0000E7CFDF91CF911F910F91FF90EF90DF908E
:100F1000CF90089580916E0190916F01969587957D
:100F200096958795909364018093630190936201F5
:100F3000809361019093600180935F0180916C01C7
:100F400090916D019695879596958795909335012B
:100F50008093340190933301809332019093310157
:100F60008093300180916B01E7E4F1E080934701C9
:100F700010924801DF0112978C9311961C921197E1
:100F800034978083118208958F929F92AF92BF927F
:100F9000CF92DF92EF92FF920F931F93CF93DF9345
:100FA000E82FF0E0EE0FFF1FEA5CFE4F808091809B
:100FB000662321F49094819491089394C82FD0E0F3
:100FC000CC0FDD1FFE01E75BFE4F8081918162E067
:100FD00070E00E9459088B0108191909FE01E15AB5
:100FE000FE4F80819181089F9001099F300D189FCD
:100FF000300D112450E8E52EF12CC901B7010E94F3
:1010000059086B01FE01E05DFE4FAAE2AA2EA1E0A5
:10101000BA2EAC0EBD1ED5014D915C911197400FBB
:10102000511F20813181429FC001439F900D529FEB
:10103000900D1124B7010E945908C60ED71EF50164
:1010400011830083FE01EC5DFE4FD182C082FE0160
:10105000E85EFE4FC25EDE4F888199819183808376
:1010600099828882C601DF91CF911F910F91FF90E5
:10107000EF90DF90CF90BF90AF909F908F900895AA
:101080000E94A3050E945404FDCFAA1BBB1B51E183
:1010900007C0AA1FBB1FA617B70710F0A61BB70BE8
:1010A000881F991F5A95A9F780959095BC01CD018D
:1010B000089597FB092E07260AD077FD04D0E5DFB7
:1010C00006D000201AF4709561957F4F0895F6F7C9
:1010D000909581959F4F0895DC01CB01FC01F99912
:1010E000FECF06C0F2BDE1BDF89A319600B40D9274
:1010F00041505040B8F70895F999FECF92BD81BD97
:10110000F89A992780B50895262FF999FECF1FBA2E
:1011100092BD81BD20BD0FB6F894FA9AF99A0FBE20
:0811200001960895F894FFCF39
:021128001600AF
:00000001FF
