:100000000C9434000C9439030C946A030C949B03F5
:100010000C9451000C9408030C9451000C94510062
:100020000C9451000C9451000C9451000C9451000C
:100030000C9451000C9451000C9451000C945100FC
:100040000C9451000C9451000C9451000C945100EC
:100050000C9451000C9451000C9451000C945100DC
:100060000C9451000C94510011241FBECFEFD8E026
:10007000DEBFCDBF11E0A0E0B1E0EAE9F3E102C0EC
:1000800005900D92A230B107D9F711E0A2E0B1E0DE
:1000900001C01D92A438B107E1F70E9479090C94C0
:1000A000CB090C9400008FE380937E0010927B00BC
:1000B000089580937C0086EC80937A0080917A008A
:1000C00086FDFCCF0895EF92FF920F931F93CF937D
:1000D000DF9383E00E945900C8E7D0E0888190E078
:1000E000909368018093670109E710E0F80140816F
:1000F000E12C24E0F22E9701281B390BC901342F83
:1001000020E0821B930B909368018093670184E049
:100110000E945900888190E090936A018093690160
:10012000F80140819701281B390BC901342F20E0C9
:10013000821B930B90936A018093690185E00E9472
:100140005900888190E090936C0180936B01F801D5
:100150002081E81AF90A922F80E0E81AF90AF09251
:100160006C01E0926B01DF91CF911F910F91FF9095
:10017000EF900895CF93C82F82E00E9459002091FC
:10018000780030E0309337012093360140917900B8
:10019000942F80E0820F931F909337018093360154
:1001A000CC2351F42091030130910401821B930B65
:1001B000909337018093360181E00E94590020918D
:1001C000780030E030933901209338014091790074
:1001D000942F80E0820F931F909339018093380110
:1001E000CC2351F42091050130910601821B930B21
:1001F000909339018093380180E00E94590020914A
:10020000780030E030933B0120933A01409179002F
:10021000942F80E0820F931F90933B0180933A01CB
:10022000CC2351F42091070130910801821B930BDC
:1002300090933B0180933A01CF9108952E9A8FE3DA
:100240009DE0A3E081509040A040E1F700C0000095
:100250002E988FE39DE0A3E081509040A040E1F70D
:1002600000C000002E9A8FE39DE0A3E081509040F3
:10027000A040E1F700C000002E988FE39DE0A3E0CE
:1002800081509040A040E1F700C000002E9A8FE31B
:100290009DE0A3E081509040A040E1F700C0000045
:1002A0002E988FE39DE0A3E081509040A040E1F7BD
:1002B00000C0000081E08093640188E097E09093A3
:1002C0000101809300010E94E60480914F0190910A
:1002D000500190933D0180933C0190935301809392
:1002E000520190936301809362019093580180932F
:1002F00057019093770180937601909370018093DA
:100300006F010E944405DFCF0E94CA02FFCFCF9247
:10031000DF92EF92FF921F93CF93DF9310927D01B4
:1003200010927C0110927F0110927E011092830145
:100330001092820184E02E9A2FE33DE043E02150A9
:1003400030404040E1F700C000002E982FE33DE030
:1003500043E0215030404040E1F700C000008150B0
:1003600051F714E0CC24DD24EE24FF24C0E0D0E0DB
:100370000E94E6048091490190914A01C80FD91F5B
:1003800080914B0190914C01E80EF91E80914D0136
:1003900090914E01C80ED91E87EA91E60197F1F7B8
:1003A00000C00000115021F7D0937D01C0937C0163
:1003B000F0927F01E0927E0180E694E090938101CB
:1003C00080938001D0928301C09282010E94E60254
:1003D0002E9A2FE73AE146E0215030404040E1F7C5
:1003E00000C000002E98DF91CF911F91FF90EF90F9
:1003F000DF90CF90089585E02E9A2FE33DE043E013
:10040000215030404040E1F700C000002E982FE31B
:100410003DE043E0215030404040E1F700C00000A3
:10042000815051F70E94E6048091490190914A0160
:100430004E968D33910508F180917901882321F43E
:1004400081E08093790102C0109279010E94E60256
:100450002E9A8FE39DE0A3E081509040A040E1F709
:1004600000C000002E982FE33DE043E021503040D3
:100470004040E1F700C00000EBCF80914B0190912C
:100480004C014E968D33910508F180917A018823B5
:1004900021F481E080937A0102C010927A010E94D7
:1004A000E6022E9A8FE39DE0A3E081509040A040A9
:1004B000E1F700C000002E982FE33DE043E021501B
:1004C00030404040E1F700C00000EBCF80914D018B
:1004D00090914E014E968D33910508F4A3CF8091F3
:1004E0007B01882321F481E080937B0102C010927C
:1004F0007B010E94E6022E9A8FE39DE0A3E08150EB
:100500009040A040E1F700C000002E982FE33DE0AE
:1005100043E0215030404040E1F700C00000EBCF05
:100520000F931F93CF93DF930F92CDB7DEB78C015C
:1005300069830E94B5096981861719F0C8010E9474
:10054000BD090F90DF91CF911F910F910895CF9228
:10055000DF92EF92FF920F931F93CF93DF937C0173
:100560008B016A01C0E0D0E009C0C801F7016191C8
:100570007F010E9490020F5F1F4F2196CC15DD0571
:10058000A1F7DF91CF911F910F91FF90EF90DF9036
:10059000CF90089581E08093790110927A011092B2
:1005A0007B0180EF95E090937D0180937C01909397
:1005B0007F0180937E0120E634E030938101209317
:1005C000800190938301809382010895F89488E7D5
:1005D00091E06AE070E04CE050E00E94A70278945D
:1005E00008958AE090E00E94B509873441F087E4DD
:1005F000809378010E94CA020E94E602089588E76B
:1006000091E06AE070E04CE050E00E94A509089596
:100610001F920F920FB60F9211242F933F938F9337
:100620009F9389B181FF09C08091840090918500DA
:10063000909366018093650113C081E080937301FC
:100640008091840090918500209165013091660130
:10065000821B930B90937501809374011092730128
:100660009F918F913F912F910F900FBE0F901F90F0
:1006700018951F920F920FB60F9211242F933F934C
:100680008F939F9389B182FF09C0809184009091DC
:1006900085009093400180933F0113C081E08093D7
:1006A0007301809184009091850020913F013091E9
:1006B0004001821B930B90935B0180935A0110922F
:1006C00073019F918F913F912F910F900FBE0F90CB
:1006D0001F9018951F920F920FB60F9211242F930F
:1006E0003F938F939F9389B183FF09C080918400CA
:1006F00090918500909356018093550113C081E03D
:100700008093730180918400909185002091550120
:1007100030915601821B930B90937201809371016B
:10072000109273019F918F913F912F910F900FBE67
:100730000F901F9018951F920F920FB60F921124D1
:100740002F933F938F939F931F9B09C080918400A9
:100750009091850090936E0180936D0113C081E0AC
:1007600080937301809184009091850020916D01A8
:1007700030916E01821B930B909342018093410153
:10078000109273019F918F913F912F910F900FBE07
:100790000F901F90189585B7806185BF519852982A
:1007A00053982798389839983A983D983C983B98B0
:1007B000229A219A209A579A569A559A269A2E98B2
:1007C00049984A984B981F9880916800816080935F
:1007D00068008091680084608093680080916B005D
:1007E000806880936B0080916D00826080936D00C3
:1007F00085E08093690083E08DBB8CB383608CBB04
:1008000014BC81E085BD10926E001092800082E0E1
:10081000809381001092B00087E08093B100109225
:10082000700017BA1092B2000E94F1020E945300A9
:1008300010923E01109264011092730180917C012C
:1008400090917D01909375018093740180917E0158
:1008500090917F0190935B0180935A018091800178
:100860009091810190937201809371018091820136
:100870009091830190934201809341012E9A8BE7DE
:1008800092E90197F1F700C000002E9878948FED5F
:1008900093E9A4E081509040A040E1F700C000003F
:1008A0000E9463000E9463008091690190916A0137
:1008B0008333910580F480916701909168018333BF
:1008C000910548F480916B0190916C0183339105FF
:1008D00010F40E9484018091690190916A01833330
:1008E000910510F40E948701809167019091680141
:1008F0008333910510F40E94FB0180916B0190916C
:100900006C018333910510F40E941E010895CF936A
:100910000E946300109204011092030110920601DC
:10092000109205011092080110920701C0E281E0C7
:100930000E94BA0080910301909104012091360138
:1009400030913701820F931F90930401809303012C
:1009500040910501509106012091380130913901F3
:10096000420F531F50930601409305016091070108
:100970007091080120913A0130913B01620F731F81
:100980007093080160930701C15089F625E09595A1
:1009900087952A95E1F7909304018093030135E050
:1009A000559547953A95E1F7509306014093050117
:1009B000E5E075956795EA95E1F770930801609316
:1009C000070181E080933E01CF91089580917301EA
:1009D0008823E1F7809174019091750120917C0149
:1009E00030917D01821B930B959587959595879501
:1009F00090934A0180934901809173018823E1F724
:100A000080915A0190915B0120917E0130917F018C
:100A1000821B930B959587959595879590934C019F
:100A200080934B01809173018823E1F780917101DC
:100A3000909172012091800130918101821B930B72
:100A4000A3E095958795AA95E1F79093500180933F
:100A50004F01809173018823E1F7809141019091CA
:100A600042012091820130918301821B930B90936C
:100A70000D0180930C019595879595958795909399
:100A80004E0180934D01089580910201882309F45D
:100A90005FC180913C0190913D0197FF05C010928C
:100AA0003D0110923C0109C08536910534F084E681
:100AB00090E090933D0180933C0180915201909190
:100AC000530197FF05C0109253011092520109C0C3
:100AD0008536910534F084E690E09093530180933D
:100AE0005201809162019091630197FF05C01092BD
:100AF00063011092620109C08536910534F084E6E5
:100B000090E09093630180936201809157019091EE
:100B1000580197FF05C0109258011092570109C063
:100B20008536910534F084E690E0909358018093E7
:100B30005701809176019091770197FF05C010923F
:100B400077011092760109C08536910534F084E66C
:100B500090E0909377018093760180916F0190915E
:100B6000700197FF05C01092700110926F0109C0CB
:100B70008536910534F084E690E09093700180937F
:100B80006F01809184009091850020910E01309139
:100B90000F01821B930B9093110180931001A89871
:100BA00016BC6AE070E00E947E096F5F60931201DC
:100BB000262F332727FD309584E690E0821B930B88
:100BC000909314018093130120913C0130913D01D9
:100BD000280F391F30933D0120933C012091520191
:100BE00030915301280F391F309353012093520144
:100BF0002091620130916301280F391F3093630106
:100C0000209362012091570130915801280F391F1C
:100C1000309358012093570120917601309177014C
:100C2000280F391F309377012093760120916F01AF
:100C300030917001280F391F3093700120936F019C
:100C4000A89816BC609315015FC086B58035E8F39F
:100C500086B5805586BD80913C0190913D010097FD
:100C600041F0019790933D0180933C01009709F476
:100C70002A988091520190915301009741F0019779
:100C80009093530180935201009709F42998809121
:100C9000620190916301009741F001979093630185
:100CA00080936201009709F42898809157019091F0
:100CB0005801009741F00197909358018093570194
:100CC000009709F45F9880917601909177010097E1
:100CD00041F001979093770180937601009709F492
:100CE0005E9880916F0190917001009741F001979B
:100CF0009093700180936F01009709F45D98809143
:100D000015018F5F8093150180911501883C08F4CF
:100D10009CCF809100019091010101979093170160
:100D200080931601A89816BC06C086B58035E8F3F6
:100D300086B5805586BD80911601909117019C0162
:100D4000215030403093170120931601009769F726
:100D500080916401882389F08091840090918500BE
:100D600090930F0180930E0181E0809302012A9AF3
:100D7000299A289A5F9A5E9A5D9A0895CF93DF9395
:100D80000E94E60480914F019091500185309105B9
:100D90000CF075C02091B20080910B01281B80914E
:100DA000090190910A01820F911D90930A0180938D
:100DB00009018091B20080930B0180916401882326
:100DC00041F480914D0190914E018C3391056CF46A
:100DD00008C080914D0190914E012FEF853C920704
:100DE00024F010920A01109209018091090190915A
:100DF0000A013EE18538930708F441C080916401FF
:100E000021E08227809364012E988823A9F1109213
:100E10000201109259018091490190914A018D334C
:100E200091054CF080914B0190914C018D339105CF
:100E3000B4F082E019C04FEF843C9407BCF4809179
:100E40004B0190914C018D3391051CF02093590179
:100E50000DC05FEF843C95074CF483E005C02FEF95
:100E6000843C92071CF484E0809359010E9487041B
:100E70000E9492082E9A53C1809102014CC180E0D9
:100E80000E94BA0080914F019091500180369105E7
:100E900034F08FE590E09093500180934F01809162
:100EA0004F019091500190933D0180933C019093AC
:100EB0005301809352019093630180936201909358
:100EC0005801809357019093770180937601909316
:100ED000700180936F0180E0609179010E94F208B7
:100EE00024E130E0AC01429FC001439F900D529F2E
:100EF000900D112467E170E00E94920980915201E7
:100F000090915301861B970B90935301809352014C
:100F10008091620190916301861B970B909363010E
:100F2000809362018091760190917701860F971FDF
:100F3000909377018093760180916F019091700179
:100F4000860F971F9093700180936F0181E06091ED
:100F50007A010E94F20820913C0130913D01281B4A
:100F6000390B30933D0120933C0120915701309182
:100F70005801280F391F3093580120935701959538
:100F80008795959587952091520130915301281BA3
:100F9000390B30935301209352012091620130911B
:100FA0006301280F391F3093630120936201209160
:100FB000760130917701280F391F30937701209304
:100FC000760120916F0130917001281B390B30930D
:100FD000700120936F0182E060917B010E94F20812
:100FE00020913C0130913D01281B390B30933D018C
:100FF00020933C014091520150915301480F591FD9
:1010000050935301409352016091620170916301CA
:10101000681B790B7093630160936201E091570143
:10102000F0915801E80FF91FF0935801E093570130
:10103000A0917601B0917701A81BB90BB09377010D
:10104000A0937601C0916F01D0917001C80FD91F94
:10105000D0937001C0936F012A30310534F48AE0D7
:1010600090E090933D0180933C014A30510534F467
:101070008AE090E090935301809352016A307105A9
:1010800034F48AE090E09093630180936201EA3047
:10109000F10534F48AE090E0909358018093570171
:1010A000AA30B10534F48AE090E090937701809300
:1010B0007601CA30D10534F48AE090E09093700153
:1010C00080936F0180914F0190915001863091057E
:1010D00044F080916401882321F080913E018823AF
:1010E000C1F410923D0110923C01109253011092F4
:1010F00052011092630110926201109258011092F5
:10110000570110927701109276011092700110929F
:101110006F0180916401882311F00E944405DF91E2
:10112000CF91089580916B0190916C019695879570
:1011300096958795909361018093600190935F01EC
:1011400080935E012091670130916801C9019695F5
:1011500087959695879590935D0180935C0180912A
:10116000690190916A0196958795969587959093D8
:101170003501809334019093330180933201909331
:101180003101809330013093470110924801309330
:101190004501E5E4F1E011823093430110924401EE
:1011A00091E09093540180915901823071F0833025
:1011B00028F4882341F08130A1F40DC0833051F030
:1011C000843079F40BC082E006C090935101809383
:1011D0005401089584E080935101089582E0809342
:1011E000510108958F929F92AF92BF92CF92DF925A
:1011F000EF92FF920F931F93CF93DF93A82FB0E04E
:10120000AA0FBB1FAA5CBE4F8D909C9011976623BE
:1012100021F49094819491089394C82FD0E0209168
:10122000540130E0CC0FDD1FFE01E75BFE4F609103
:1012300051018081918170E00E949209269F700186
:10124000279FF00C369FF00C1124E818F908FE01D6
:10125000E45AFE4F80819181E89E9001E99E300D15
:10126000F89E300D112400E810E0C901B8010E9479
:1012700092096B01FE01E05DFE4FAAE2AA2EA1E0F9
:10128000BA2EAC0EBD1ED5014D915C914E0D5F1D69
:1012900020813181429FC001439F900D529F900D4C
:1012A0001124B8010E949209C60ED71EF501F182E1
:1012B000E082FE01EC5DFE4FD182C082DE01A85EBD
:1012C000BE4FFE01E25EFE4F8081918111969C939C
:1012D0008E9391828082C601DF91CF911F910F91F1
:1012E000FF90EF90DF90CF90BF90AF909F908F9046
:1012F00008950E94CB030E94BE06FDCFAA1BBB1B14
:1013000051E107C0AA1FBB1FA617B70710F0A61B05
:10131000B70B881F991F5A95A9F780959095BC0126
:10132000CD01089597FB092E07260AD077FD04D03A
:10133000E5DF06D000201AF4709561957F4F08957F
:10134000F6F7909581959F4F0895DC01CB01FC0144
:10135000F999FECF06C0F2BDE1BDF89A319600B40E
:101360000D9241505040B8F70895F999FECF92BDC3
:1013700081BDF89A992780B50895262FF999FECF57
:101380001FBA92BD81BD20BD0FB6F894FA9AF99AA2
:0A1390000FBE01960895F894FFCFF8
:02139A0016003B
:00000001FF
