S00F00006B6B64726F6E652E7372656327
S11300000C9434000C9431030C9462030C94930309
S11300100C9451000C9400030C9451000C94510066
S11300200C9451000C9451000C9451000C94510008
S11300300C9451000C9451000C9451000C945100F8
S11300400C9451000C9451000C9451000C945100E8
S11300500C9451000C9451000C9451000C945100D8
S11300600C9451000C94510011241FBECFEFD4E026
S1130070DEBFCDBF11E0A0E0B1E0E0E7F1E102C0F6
S113008005900D92A230B107D9F711E0A2E0B1E0DA
S113009001C01D92AD37B107E1F70E9464080C94CA
S11300A0B6080C9400008FE380937E0010927B00CE
S11300B0089580937C0086EC80937A0080917A0086
S11300C086FDFCCF0895EF92FF920F931F93CF9379
S11300D0DF9383E00E945900C8E7D0E0888190E074
S11300E0909365018093640109E710E0F801408171
S11300F0E12C24E0F22E9701281B390BC901342F7F
S113010020E0821B930B909365018093640184E04B
S11301100E945900888190E0909367018093660162
S1130120F80140819701281B390BC901342F20E0C5
S1130130821B930B909367018093660185E00E9474
S11301405900888190E09093690180936801F801D7
S11301502081E81AF90A922F80E0E81AF90AF0924D
S11301606901E0926801DF91CF911F910F91FF9097
S1130170EF900895CF93C82F82E00E9459002091F8
S1130180780030E0309337012093360140917900B4
S1130190942F80E0820F931F909337018093360150
S11301A0CC2351F42091030130910401821B930B61
S11301B0909337018093360181E00E945900209189
S11301C0780030E030933901209338014091790070
S11301D0942F80E0820F931F90933901809338010C
S11301E0CC2351F42091050130910601821B930B1D
S11301F0909339018093380180E00E945900209146
S1130200780030E030933B0120933A01409179002B
S1130210942F80E0820F931F90933B0180933A01C7
S1130220CC2351F42091070130910801821B930BD8
S113023090933B0180933A01CF9108952E9A8FE3D6
S11302409DE0A3E081509040A040E1F700C0000091
S11302502E988FE39DE0A3E081509040A040E1F709
S113026000C000002E9A8FE39DE0A3E081509040EF
S1130270A040E1F700C000002E988FE39DE0A3E0CA
S113028081509040A040E1F700C000002E9A8FE317
S11302909DE0A3E081509040A040E1F700C0000041
S11302A02E988FE39DE0A3E081509040A040E1F7B9
S11302B000C0000081E08093610188E097E09093A2
S11302C00101809300010E94DC0480914F01909110
S11302D0500190933D0180933C019093520180938F
S11302E051019093600180935F0190935601809334
S11302F055010E943A05E7CF0E94C202FFCFCF9278
S1130300DF92EF92FF921F93CF93DF9310927601C7
S113031010927501109278011092770110927C016D
S113032010927B0184E02E9A2FE33DE043E02150BC
S113033030404040E1F700C000002E982FE33DE03C
S113034043E0215030404040E1F700C000008150BC
S113035051F714E0CC24DD24EE24FF24C0E0D0E0E7
S11303600E94DC048091490190914A01C80FD91F71
S113037080914B0190914C01E80EF91E80914D0142
S113038090914E01C80ED91E87EA91E60197F1F7C4
S113039000C00000115021F7D0937601C09375017D
S11303A0F0927801E092770180E694E090937A01EC
S11303B080937901D0927C01C0927B010E94DE027D
S11303C02E9A2FE73AE146E0215030404040E1F7D1
S11303D000C000002E98DF91CF911F91FF90EF9005
S11303E0DF90CF90089585E02E9A2FE33DE043E01F
S11303F0215030404040E1F700C000002E982FE328
S11304003DE043E0215030404040E1F700C00000AF
S1130410815051F70E94DC048091490190914A0176
S11304204E968D33910508F180917201882321F451
S113043081E08093720102C0109272010E94DE0278
S11304402E9A8FE39DE0A3E081509040A040E1F715
S113045000C000002E982FE33DE043E021503040DF
S11304604040E1F700C00000EBCF80914B01909138
S11304704C014E968D33910508F1809173018823C8
S113048021F481E08093730102C0109273010E94F1
S1130490DE022E9A8FE39DE0A3E081509040A040BD
S11304A0E1F700C000002E982FE33DE043E0215027
S11304B030404040E1F700C00000EBCF80914D0197
S11304C090914E014E968D33910508F4A3CF8091FF
S11304D07401882321F481E08093740102C0109296
S11304E074010E94DE022E9A8FE39DE0A3E0815006
S11304F09040A040E1F700C000002E982FE33DE0BB
S113050043E0215030404040E1F700C00000EBCF11
S11305100F931F93CF93DF930F92CDB7DEB78C0168
S113052069830E94A0086981861719F0C8010E9496
S1130530A8080F90DF91CF911F910F910895CF924A
S1130540DF92EF92FF920F931F93CF93DF937C017F
S11305508B016A01C0E0D0E009C0C801F7016191D4
S11305607F010E9488020F5F1F4F2196CC15DD0585
S1130570A1F7DF91CF911F910F91FF90EF90DF9042
S1130580CF90089581E080937201109273011092CC
S1130590740180EF95E090937601809375019093B8
S11305A078018093770120E634E030937A01209338
S11305B0790190937C0180937B010895F89481E7FD
S11305C091E06AE070E04CE050E00E949F02789471
S11305D008958AE090E00E94A008873441F087E4FF
S11305E0809371010E94C2020E94DE02089581E795
S11305F091E06AE070E04CE050E00E9490080895B9
S11306001F920F920FB60F9211242F933F938F9343
S11306109F9389B181FF09C08091840090918500E6
S1130620909363018093620113C081E080936E0113
S11306308091840090918500209162013091630142
S1130640821B930B9093700180936F0110926E0143
S11306509F918F913F912F910F900FBE0F901F90FC
S113066018951F920F920FB60F9211242F933F9358
S11306708F939F9389B182FF09C0809184009091E8
S113068085009093400180933F0113C081E08093E3
S11306906E01809184009091850020913F013091FA
S11306A04001821B930B9093580180935701109241
S11306B06E019F918F913F912F910F900FBE0F90DC
S11306C01F9018951F920F920FB60F9211242F931B
S11306D03F938F939F9389B183FF09C080918400D6
S11306E090918500909354018093530113C081E04D
S11306F080936E0180918400909185002091530134
S113070030915401821B930B90936D0180936C0183
S113071010926E019F918F913F912F910F900FBE78
S11307200F901F9018951F920F920FB60F921124DD
S11307302F933F938F939F931F9B09C080918400B5
S11307409091850090936B0180936A0113C081E0BE
S113075080936E01809184009091850020916A01BC
S113076030916B01821B930B909342018093410162
S113077010926E019F918F913F912F910F900FBE18
S11307800F901F90189585B7806185BF5198529836
S113079053982798389839983A983D983C983B98BC
S11307A0229A219A209A579A269A2E9849984A98DA
S11307B04B981F98809168008160809368008091B5
S11307C0680084608093680080916B0080688093E7
S11307D06B0080916D00826080936D0085E0809352
S11307E0690083E08DBB8CB383608CBB14BC81E057
S11307F085BD10926E001092800082E0809381008B
S11308001092B00087E08093B1001092700017BA84
S11308101092B2000E94E9020E94530010923E011D
S11308201092610110926E01809175019091760190
S11308309093700180936F0180917701909178017A
S113084090935801809357018091790190917A0196
S113085090936D0180936C0180917B0190917C0158
S113086090934201809341012E9A8BE792E901977C
S1130870F1F700C000002E9878948FED93E9A4E07E
S113088081509040A040E1F700C000000E94630046
S11308900E94630080916601909167018333910502
S11308A080F480916401909165018333910548F44B
S11308B080916801909169018333910510F40E943D
S11308C07C0180916601909167018333910510F456
S11308D00E947F01809164019091650183339105A9
S11308E010F40E94F30180916801909169018333AF
S11308F0910510F40E941E010895CF930E94630095
S11309001092040110920301109206011092050145
S11309101092080110920701C0E281E00E94BA001F
S113092080910301909104012091360130913701A7
S1130930820F931F9093040180930301409105015A
S1130940509106012091380130913901420F531F13
S113095050930601409305016091070170910801CD
S113096020913A0130913B01620F731F709308018B
S113097060930701C15089F625E0959587952A95DE
S1130980E1F7909304018093030135E05595479571
S11309903A95E1F75093060140930501E5E075951A
S11309A06795EA95E1F7709308016093070181E088
S11309B080933E01CF91089580916E018823E1F7E1
S11309C080916F01909170012091750130917601B1
S11309D0821B930B959587959595879590934A01DE
S11309E08093490180916E018823E1F7809157013A
S11309F0909158012091770130917801821B930BDB
S1130A00959587959595879590934C0180934B0187
S1130A1080916E018823E1F780916C0190916D01C2
S1130A202091790130917A01821B930BA3E0959573
S1130A308795AA95E1F79093500180934F01809197
S1130A406E018823E1F78091410190914201209148
S1130A507B0130917C01821B930B90930D01809359
S1130A600C01959587959595879590934E01809364
S1130A704D01089580910201882309F407C18091F2
S1130A803C0190913D0197FF05C010923D011092E9
S1130A903C0109C08536910534F084E690E09093DA
S1130AA03D0180933C01809151019091520197FF47
S1130AB005C0109252011092510109C0853691056A
S1130AC034F084E690E09093520180935101809138
S1130AD05F019091600197FF05C010926001109230
S1130AE05F0109C08536910534F084E690E0909367
S1130AF0600180935F01809155019091560197FFA9
S1130B0005C0109256011092550109C08536910511
S1130B1034F084E690E090935601809355018091DF
S1130B2084009091850020910E0130910F01821B69
S1130B30930B9093110180931001A89816BC6AE05E
S1130B4070E00E9469086F5F60931201262F3327BB
S1130B5027FD309584E690E0821B930B909314015B
S1130B608093130120913C0130913D01280F391FDE
S1130B7030933D0120933C01209151013091520169
S1130B80280F391F309352012093510120915F01A6
S1130B9030916001280F391F3093600120935F0169
S1130BA02091550130915601280F391F3093560179
S1130BB020935501A89816BC6093150143C086B5CF
S1130BC08035E8F386B5805586BD80913C019091CF
S1130BD03D01009741F0019790933D0180933C01C2
S1130BE0009709F42A98809151019091520100973D
S1130BF041F001979093520180935101009709F4B9
S1130C00299880915F0190916001009741F00197CC
S1130C109093600180935F01009709F42898809174
S1130C20550190915601009741F001979093560118
S1130C3080935501009709F45F98809115018F5FA7
S1130C408093150180911501883C08F4B8CF8091F8
S1130C50000190910101019790931701809316016F
S1130C60A89816BC06C086B58035E8F386B58055CD
S1130C7086BD80911601909117019C01215030404E
S1130C803093170120931601009769F78091610151
S1130C90882379F0809184009091850090930F01CE
S1130CA080930E0181E0809302012A9A299A289A5E
S1130CB05F9A08950E94DC0480914F019091500145
S1130CC0853091050CF04CC02091B20080910B014D
S1130CD0281B8091090190910A01820F911D909324
S1130CE00A01809309018091B20080930B018091E5
S1130CF06101882341F480914D0190914E018C3320
S1130D0091056CF408C080914D0190914E012FEF34
S1130D10853C920724F010920A01109209018091F7
S1130D20090190910A012EE185389207C8F080915B
S1130D30610191E08927809361012E98882341F015
S1130D40109202010E947D040E94A9072E9A089520
S1130D5080910201882309F4FBC00E943A0508959A
S1130D6080E00E94BA0080914F019091500180363A
S1130D70910534F08FE590E09093500180934F01FA
S1130D8080914F019091500190933D0180933C01DB
S1130D9090935201809351019093600180935F017D
S1130DA0909356018093550180E0609172010E94F6
S1130DB0E8079595879520913C0130913D01280FD6
S1130DC0391F30933D0120933C0120915101309112
S1130DD05201280F391F3093520120935101209161
S1130DE05F0130916001281B390B3093600120931F
S1130DF05F012091550130915601281B390B309326
S1130E0056012093550181E0609173010E94E80727
S1130E109595879520913C0130913D01280F391F0C
S1130E2030933D0120933C012091510130915201B6
S1130E30281B390B309352012093510120915F01FB
S1130E4030916001280F391F3093600120935F01B6
S1130E502091550130915601281B390B30935601CE
S1130E602093550182E0609174010E94E80720916B
S1130E703C0130913D01280F391F30933D012093EF
S1130E803C014091510150915201481B590B509320
S1130E9052014093510160915F0170916001681BA0
S1130EA0790B7093600160935F01E0915501F091BB
S1130EB05601E80FF91FF0935601E09355012A30CB
S1130EC0310534F48AE090E090933D0180933C0135
S1130ED04A30510534F48AE090E0909352018093B3
S1130EE051016A30710534F48AE090E09093600116
S1130EF080935F01EA30F10534F48AE090E0909346
S1130F0056018093550180914F0190915001863094
S1130F10910544F080916101882321F080913E0184
S1130F20882381F410923D0110923C0110925201E9
S1130F30109251011092600110925F0110925601BB
S1130F401092550180916101882311F00E943A05A5
S1130F500895809168019091690196958795969579
S1130F60879590935E0180935D0190935C018093DB
S1130F705B01E4E6F1E0808191819C01369527953F
S1130F803695279530935A01209359012281338154
S1130F90369527953695279530933501209334015E
S1130FA03093330120933201309331012093300187
S1130FB0E7E4F1E09093470110924801DF011297B2
S1130FC09C9311961C9211973497908311820895E3
S1130FD08F929F92AF92BF92CF92DF92EF92FF9245
S1130FE00F931F93CF93DF93E82FF0E0EE0FFF1FD3
S1130FF0EA5CFE4F80809180662321F49094819472
S113100091089394C82FD0E0CC0FDD1FFE01E75B5D
S1131010FE4F8081918162E070E00E947D088B0127
S113102008191909FE01E75AFE4F80819181089F32
S11310309001099F300D189F300D1124A0E8EA2E6D
S1131040F12CC901B7010E947D086B01FE01E05D2E
S1131050FE4FBAE2AB2EB1E0BB2EAC0EBD1ED501E5
S11310604D915C911197400F511F20813181429F16
S1131070C001439F900D529F900D1124B7010E940F
S11310807D08C60ED71EF50111830083FE01EC5DB9
S1131090FE4FD182C082FE01E85EFE4FC25EDE4F8B
S11310A0888199819183808399828882C601DF91A6
S11310B0CF911F910F91FF90EF90DF90CF90BF9051
S11310C0AF909F908F9008950E94C3030E945A0688
S11310D0FDCFAA1BBB1B51E107C0AA1FBB1FA6174C
S11310E0B70710F0A61BB70B881F991F5A95A9F7CD
S11310F080959095BC01CD01089597FB092E072694
S11311000AD077FD04D0E5DF06D000201AF47095EC
S113111061957F4F0895F6F7909581959F4F0895B7
S1131120DC01CB01FC01F999FECF06C0F2BDE1BDA3
S1131130F89A319600B40D9241505040B8F7089592
S1131140F999FECF92BD81BDF89A992780B508958B
S1131150262FF999FECF1FBA92BD81BD20BD0FB6CF
S1131160F894FA9AF99A0FBE01960895F894FFCF6D
S1051170160063
S9030000FC
